module.exports = {
  "tx": {
    "blockHash": "0xc185c457097629dfcfabd7ed3826ea1e75a0ec657e21e1006a1551640081781a",
    "blockNumber": 1094,
    "chainId": "0xd",
    "condition": null,
    "creates": null,
    "from": "0x9fB29AAc15b9A4B7F17c3385939b007540f4d791",
    "gas": 6721975,
    "gasPrice": "20000000000",
    "hash": "0x577936f625bbaf9e6057a9f6d47512471c1ede748f3b8bc626106b4a21b39082",
    "input": "0x2e1a7d4d000000000000000000000000000000000000000000000000000000000000000a",
    "nonce": 167,
    "publicKey": "0x914873c8d5935837ade39cbdabd6efb3d3d4064c5918da11e555bba0ab2c58fee95974a3222830cf73d257bdc18cfcd01765482108a48e68bc0b657618acb40e",
    "r": "0x25deacea9cad7b4000feca23ed8cb6f458aa65caa2d8e633860575de8f10156b",
    "raw": "0xf88a81a78504a817c800836691b794b17d27bf7b53228a3370ba60ca73e7db8e911f9e80a42e1a7d4d000000000000000000000000000000000000000000000000000000000000000a3da025deacea9cad7b4000feca23ed8cb6f458aa65caa2d8e633860575de8f10156ba0145b782cfbf427cd51cfa638363c919fbb4307826c5efa6ffa7c24a8ae1a8717",
    "s": "0x145b782cfbf427cd51cfa638363c919fbb4307826c5efa6ffa7c24a8ae1a8717",
    "standardV": "0x0",
    "to": "0xb17d27bf7b53228A3370bA60cA73E7dB8E911F9E",
    "transactionIndex": 0,
    "v": "0x3d",
    "value": "0"
  },
  "receipt": {
    "blockHash": "0xc185c457097629dfcfabd7ed3826ea1e75a0ec657e21e1006a1551640081781a",
    "blockNumber": 1094,
    "contractAddress": null,
    "cumulativeGasUsed": 18999,
    "from": "0x9fb29aac15b9a4b7f17c3385939b007540f4d791",
    "gasUsed": 18999,
    "logs": [
      {
        "address": "0xb17d27bf7b53228A3370bA60cA73E7dB8E911F9E",
        "blockHash": "0xc185c457097629dfcfabd7ed3826ea1e75a0ec657e21e1006a1551640081781a",
        "blockNumber": 1094,
        "data": "0x000000000000000000000000000000000000000000000000000000000000000a",
        "logIndex": 0,
        "removed": false,
        "topics": [
          "0xddf252ad1be2c89b69c2b068fc378daa952ba7f163c4a11628f55a4df523b3ef",
          "0x0000000000000000000000009fb29aac15b9a4b7f17c3385939b007540f4d791",
          "0x0000000000000000000000000000000000000000000000000000000000000000"
        ],
        "transactionHash": "0x577936f625bbaf9e6057a9f6d47512471c1ede748f3b8bc626106b4a21b39082",
        "transactionIndex": 0,
        "transactionLogIndex": "0x0",
        "type": "mined",
        "id": "log_2773cdca"
      },
      {
        "address": "0xb17d27bf7b53228A3370bA60cA73E7dB8E911F9E",
        "blockHash": "0xc185c457097629dfcfabd7ed3826ea1e75a0ec657e21e1006a1551640081781a",
        "blockNumber": 1094,
        "data": "0x000000000000000000000000000000000000000000000000000000000000000a000000000000000000000000000000000000000000000000000000000000000a0000000000000000000000000000000000000000000000000000000000000000",
        "logIndex": 1,
        "removed": false,
        "topics": [
          "0xebff2602b3f468259e1e99f613fed6691f3a6526effe6ef3e768ba7ae7a36c4f",
          "0x000000000000000000000000ee1909c65a902b6d494741527e0e16b629c432d7",
          "0x0000000000000000000000009fb29aac15b9a4b7f17c3385939b007540f4d791"
        ],
        "transactionHash": "0x577936f625bbaf9e6057a9f6d47512471c1ede748f3b8bc626106b4a21b39082",
        "transactionIndex": 0,
        "transactionLogIndex": "0x1",
        "type": "mined",
        "id": "log_cc06abf5"
      }
    ],
    "logsBloom": "0x00000000000000000000000000000000000200000000000000000000000000000000000000000000000010000004000000000400000000000000000000000000000000000000000000000008000000000000000000002000002000000000000000000000020000000000000200000800000000000000004000000010001000000000000000000000000000000040000000000000000000000000000000000000000000000000000000000000000000000000000000000000000000000000000000000002000000000000000000000000020000000000000000000000200020000000000000000000000000000000000000000000000000000000000000000000",
    "root": null,
    "status": true,
    "to": "0xb17d27bf7b53228a3370ba60ca73e7db8e911f9e",
    "transactionHash": "0x577936f625bbaf9e6057a9f6d47512471c1ede748f3b8bc626106b4a21b39082",
    "transactionIndex": 0
  },
  "block": {
    "author": "0x9fb29aac15b9a4b7f17c3385939b007540f4d791",
    "difficulty": "340282366920938463463374607431768211452",
    "extraData": "0xde8302010b8f5061726974792d457468657265756d86312e33312e31826d61",
    "gasLimit": 23594048314,
    "gasUsed": 18999,
    "hash": "0xc185c457097629dfcfabd7ed3826ea1e75a0ec657e21e1006a1551640081781a",
    "logsBloom": "0x00000000000000000000000000000000000200000000000000000000000000000000000000000000000010000004000000000400000000000000000000000000000000000000000000000008000000000000000000002000002000000000000000000000020000000000000200000800000000000000004000000010001000000000000000000000000000000040000000000000000000000000000000000000000000000000000000000000000000000000000000000000000000000000000000000002000000000000000000000000020000000000000000000000200020000000000000000000000000000000000000000000000000000000000000000000",
    "miner": "0x9fB29AAc15b9A4B7F17c3385939b007540f4d791",
    "number": 1094,
    "parentHash": "0xeaa3b0609a5afc15fe6f7a0361d46343233c4bf050f06ddfcfc02846e3d4c82a",
    "receiptsRoot": "0x4cbdfa2a0c60a8062a464dd61e1c0d0c5887e56744c480b8729572635938343e",
    "sealFields": [
      "0x845cc7ebf1",
      "0xb841afbd3cd9a2677adce81866f3af51f9bb96b9ca90c8057a69395b975d8d8e724652750f64047a3cfd2fa26d3d98fc38bb63780cb76ae27b7350b7fbf906d60b3e01"
    ],
    "sha3Uncles": "0x1dcc4de8dec75d7aab85b567b6ccd41ad312451b948a7413f0a142fd40d49347",
    "signature": "afbd3cd9a2677adce81866f3af51f9bb96b9ca90c8057a69395b975d8d8e724652750f64047a3cfd2fa26d3d98fc38bb63780cb76ae27b7350b7fbf906d60b3e01",
    "size": 732,
    "stateRoot": "0xc6d716136fd84bcdaabbcb9586528d5e09e80299668d29a846d271c4b293fe14",
    "step": "1556605937",
    "timestamp": 1556605937,
    "totalDifficulty": "372268909411506679028931820530352866725834",
    "transactions": [
      {
        "blockHash": "0xc185c457097629dfcfabd7ed3826ea1e75a0ec657e21e1006a1551640081781a",
        "blockNumber": 1094,
        "chainId": "0xd",
        "condition": null,
        "creates": null,
        "from": "0x9fB29AAc15b9A4B7F17c3385939b007540f4d791",
        "gas": 6721975,
        "gasPrice": "20000000000",
        "hash": "0x577936f625bbaf9e6057a9f6d47512471c1ede748f3b8bc626106b4a21b39082",
        "input": "0x2e1a7d4d000000000000000000000000000000000000000000000000000000000000000a",
        "nonce": 167,
        "publicKey": "0x914873c8d5935837ade39cbdabd6efb3d3d4064c5918da11e555bba0ab2c58fee95974a3222830cf73d257bdc18cfcd01765482108a48e68bc0b657618acb40e",
        "r": "0x25deacea9cad7b4000feca23ed8cb6f458aa65caa2d8e633860575de8f10156b",
        "raw": "0xf88a81a78504a817c800836691b794b17d27bf7b53228a3370ba60ca73e7db8e911f9e80a42e1a7d4d000000000000000000000000000000000000000000000000000000000000000a3da025deacea9cad7b4000feca23ed8cb6f458aa65caa2d8e633860575de8f10156ba0145b782cfbf427cd51cfa638363c919fbb4307826c5efa6ffa7c24a8ae1a8717",
        "s": "0x145b782cfbf427cd51cfa638363c919fbb4307826c5efa6ffa7c24a8ae1a8717",
        "standardV": "0x0",
        "to": "0xb17d27bf7b53228A3370bA60cA73E7dB8E911F9E",
        "transactionIndex": 0,
        "v": "0x3d",
        "value": "0"
      }
    ],
    "transactionsRoot": "0x694ef49cef146f38749cfe713664197e687402aa162e9f3b00ad246ed7cf4cc5",
    "uncles": []
  }
}
