module.exports = {
  "tx": {
    "blockHash": "0xeaa3b0609a5afc15fe6f7a0361d46343233c4bf050f06ddfcfc02846e3d4c82a",
    "blockNumber": 1093,
    "chainId": "0xd",
    "condition": null,
    "creates": null,
    "from": "0x96C42C56fdb78294F96B0cFa33c92bed7D75F96a",
    "gas": 6721975,
    "gasPrice": "20000000000",
    "hash": "0x54d82631acd4e609339982cd205b702b2657c0d69366286350380fc1788087b9",
    "input": "0xa9059cbb0000000000000000000000009fb29aac15b9a4b7f17c3385939b007540f4d791000000000000000000000000000000000000000000000000000000000000000a",
    "nonce": 23,
    "publicKey": "0x90718dcbc2477c86294742fb72bf098ba85ff671b88c8d79b2e09ce19bdbd88fd87047aaebc775b168372752aa8bc4e5be1ca5d39284fed00722f341927888c3",
    "r": "0x303cf9e189cd7e5d1a2b4d865c0420cedda89a0737da355d0d43c75bd9c28e33",
    "raw": "0xf8aa178504a817c800836691b794b17d27bf7b53228a3370ba60ca73e7db8e911f9e80b844a9059cbb0000000000000000000000009fb29aac15b9a4b7f17c3385939b007540f4d791000000000000000000000000000000000000000000000000000000000000000a3da0303cf9e189cd7e5d1a2b4d865c0420cedda89a0737da355d0d43c75bd9c28e33a03e9804f20e05e1a2ba1aa27173d413c9ed0b991a6bbda903a9ec63003103e398",
    "s": "0x3e9804f20e05e1a2ba1aa27173d413c9ed0b991a6bbda903a9ec63003103e398",
    "standardV": "0x0",
    "to": "0xb17d27bf7b53228A3370bA60cA73E7dB8E911F9E",
    "transactionIndex": 0,
    "v": "0x3d",
    "value": "0"
  },
  "receipt": {
    "blockHash": "0xeaa3b0609a5afc15fe6f7a0361d46343233c4bf050f06ddfcfc02846e3d4c82a",
    "blockNumber": 1093,
    "contractAddress": null,
    "cumulativeGasUsed": 41782,
    "from": "0x96c42c56fdb78294f96b0cfa33c92bed7d75f96a",
    "gasUsed": 41782,
    "logs": [
      {
        "address": "0xb17d27bf7b53228A3370bA60cA73E7dB8E911F9E",
        "blockHash": "0xeaa3b0609a5afc15fe6f7a0361d46343233c4bf050f06ddfcfc02846e3d4c82a",
        "blockNumber": 1093,
        "data": "0x000000000000000000000000000000000000000000000000000000000000000a",
        "logIndex": 0,
        "removed": false,
        "topics": [
          "0xddf252ad1be2c89b69c2b068fc378daa952ba7f163c4a11628f55a4df523b3ef",
          "0x00000000000000000000000096c42c56fdb78294f96b0cfa33c92bed7d75f96a",
          "0x0000000000000000000000009fb29aac15b9a4b7f17c3385939b007540f4d791"
        ],
        "transactionHash": "0x54d82631acd4e609339982cd205b702b2657c0d69366286350380fc1788087b9",
        "transactionIndex": 0,
        "transactionLogIndex": "0x0",
        "type": "mined",
        "id": "log_0b40a2f8"
      },
      {
        "address": "0xb17d27bf7b53228A3370bA60cA73E7dB8E911F9E",
        "blockHash": "0xeaa3b0609a5afc15fe6f7a0361d46343233c4bf050f06ddfcfc02846e3d4c82a",
        "blockNumber": 1093,
        "data": "0x000000000000000000000000000000000000000000000000000000000000000a000000000000000000000000000000000000000000000000000000000000000a00000000000000000000000000000000000000000000000000000000000000000000000000000000000000000000000000000000000000000000000000000000000000000000000000000000000000000000000000000000000000000000000a",
        "logIndex": 1,
        "removed": false,
        "topics": [
          "0xe6497e3ee548a3372136af2fcb0696db31fc6cf20260707645068bd3fe97f3c4",
          "0x000000000000000000000000ee1909c65a902b6d494741527e0e16b629c432d7",
          "0x00000000000000000000000096c42c56fdb78294f96b0cfa33c92bed7d75f96a",
          "0x0000000000000000000000009fb29aac15b9a4b7f17c3385939b007540f4d791"
        ],
        "transactionHash": "0x54d82631acd4e609339982cd205b702b2657c0d69366286350380fc1788087b9",
        "transactionIndex": 0,
        "transactionLogIndex": "0x1",
        "type": "mined",
        "id": "log_d66f3206"
      }
    ],
    "logsBloom": "0x00000000000000000000000000000000000200000000000000000000000000000000000000000000000040100004000000000400000000000000000000000000000000000000000000000008000000000000000000002000002000000000000000000000000000000000000200000000000000000000004000000010000000000000000000000000000000000040000000000000000000000000000000000000000000000000000000000000000000000000000000000000000000000000000000000002000000000000000000000000020000000000800000008000000000000000000000000000000240000000000000000000000000000000000000000000",
    "root": null,
    "status": true,
    "to": "0xb17d27bf7b53228a3370ba60ca73e7db8e911f9e",
    "transactionHash": "0x54d82631acd4e609339982cd205b702b2657c0d69366286350380fc1788087b9",
    "transactionIndex": 0
  },
  "block": {
    "author": "0x9fb29aac15b9a4b7f17c3385939b007540f4d791",
    "difficulty": "340282366920938463463374607431768211451",
    "extraData": "0xde8302010b8f5061726974792d457468657265756d86312e33312e31826d61",
    "gasLimit": 23617111898,
    "gasUsed": 41782,
    "hash": "0xeaa3b0609a5afc15fe6f7a0361d46343233c4bf050f06ddfcfc02846e3d4c82a",
    "logsBloom": "0x00000000000000000000000000000000000200000000000000000000000000000000000000000000000040100004000000000400000000000000000000000000000000000000000000000008000000000000000000002000002000000000000000000000000000000000000200000000000000000000004000000010000000000000000000000000000000000040000000000000000000000000000000000000000000000000000000000000000000000000000000000000000000000000000000000002000000000000000000000000020000000000800000008000000000000000000000000000000240000000000000000000000000000000000000000000",
    "miner": "0x9fB29AAc15b9A4B7F17c3385939b007540f4d791",
    "number": 1093,
    "parentHash": "0x138a9d252dae14d592508cc3f857d3e007471edf614878454f31fa28db83e405",
    "receiptsRoot": "0x3fc67c439e92315f8dd464b9fb1f63753552ea6aafb5ecd4f4cbaef896095631",
    "sealFields": [
      "0x845cc7ebee",
      "0xb841ee975dda7b0d80e77544a8adb0be45148836aec98bb2fdc20765654bd39b4fdd60ac8daa64ef1595141b29921be29a15d963dcd523793d604754e5148f502ac801"
    ],
    "sha3Uncles": "0x1dcc4de8dec75d7aab85b567b6ccd41ad312451b948a7413f0a142fd40d49347",
    "signature": "ee975dda7b0d80e77544a8adb0be45148836aec98bb2fdc20765654bd39b4fdd60ac8daa64ef1595141b29921be29a15d963dcd523793d604754e5148f502ac801",
    "size": 764,
    "stateRoot": "0xe8f1016da33dfc569c72e2dcbf39d722a1a34afd2aa695d945d408b46c175afd",
    "step": "1556605934",
    "timestamp": 1556605934,
    "totalDifficulty": "371928627044585740565468445922921098514382",
    "transactions": [
      {
        "blockHash": "0xeaa3b0609a5afc15fe6f7a0361d46343233c4bf050f06ddfcfc02846e3d4c82a",
        "blockNumber": 1093,
        "chainId": "0xd",
        "condition": null,
        "creates": null,
        "from": "0x96C42C56fdb78294F96B0cFa33c92bed7D75F96a",
        "gas": 6721975,
        "gasPrice": "20000000000",
        "hash": "0x54d82631acd4e609339982cd205b702b2657c0d69366286350380fc1788087b9",
        "input": "0xa9059cbb0000000000000000000000009fb29aac15b9a4b7f17c3385939b007540f4d791000000000000000000000000000000000000000000000000000000000000000a",
        "nonce": 23,
        "publicKey": "0x90718dcbc2477c86294742fb72bf098ba85ff671b88c8d79b2e09ce19bdbd88fd87047aaebc775b168372752aa8bc4e5be1ca5d39284fed00722f341927888c3",
        "r": "0x303cf9e189cd7e5d1a2b4d865c0420cedda89a0737da355d0d43c75bd9c28e33",
        "raw": "0xf8aa178504a817c800836691b794b17d27bf7b53228a3370ba60ca73e7db8e911f9e80b844a9059cbb0000000000000000000000009fb29aac15b9a4b7f17c3385939b007540f4d791000000000000000000000000000000000000000000000000000000000000000a3da0303cf9e189cd7e5d1a2b4d865c0420cedda89a0737da355d0d43c75bd9c28e33a03e9804f20e05e1a2ba1aa27173d413c9ed0b991a6bbda903a9ec63003103e398",
        "s": "0x3e9804f20e05e1a2ba1aa27173d413c9ed0b991a6bbda903a9ec63003103e398",
        "standardV": "0x0",
        "to": "0xb17d27bf7b53228A3370bA60cA73E7dB8E911F9E",
        "transactionIndex": 0,
        "v": "0x3d",
        "value": "0"
      }
    ],
    "transactionsRoot": "0xf39d426f5e6154186bade8427cbc2a93b9692c69034dbfe4f9d8f29b593835c6",
    "uncles": []
  }
}
