module.exports = {
  "tx": {
    "blockHash": "0xb19619ce6ac81dfe4d12292ca1941dd3b66a61fe0ce3c269f7867e4cce95864b",
    "blockNumber": 29570,
    "chainId": "0x3a99",
    "condition": null,
    "creates": null,
    "from": "0x9fB29AAc15b9A4B7F17c3385939b007540f4d791",
    "gas": 6721975,
    "gasPrice": "20000000000",
    "hash": "0xdc5f4db90bfcc711ce4746e96961e5169baaf333b8aedf28c9e59e117a4f7276",
    "input": "0xe660b9e400000000000000000000000000000000000000000000000000000000000000a000000000000000000000000000000000000000000000000000000000000001a0468fc9c005382579139846222b7b0aebc9182ba073b2455938a86d9753bfb078000000000000000000000000000000000000000000000000000000000000738900000000000000000000000096c42c56fdb78294f96b0cfa33c92bed7d75f96a00000000000000000000000000000000000000000000000000000000000000e00000000000000000000000000ce9613684b85287192c57e5051cb009fb266c030000000000000000000000000000000000000000000000000000000000000060000000000000000000000000000000000000000000000000000000000000000a00000000000000000000000000000000000000000000000000000000000000418c36fdf91a12830a189ce2505284f9f7612ddff7e431d2c441c1ca5d433324332db96d1b4ce056b42f9547c7a29e501e053fa54a694b2a5648b40471a5f956dc1c0000000000000000000000000000000000000000000000000000000000000000000000000000000000000000000000000000000000000000000000000000e00000000000000000000000004b28b90d42f9f1a30056f74f6899c6e10597ae680000000000000000000000000000000000000000000000000000000000000060000000000000000000000000000000000000000000000000000000000000031500000000000000000000000000000000000000000000000000000000000000418147671fa5e88a74ac098fbe2bde8bec247e9a4f244a97830dbd3dd25836b31e32d67c11144e151c882b6a1f7e6f12b37cd93509f06f00bba3158141742e20681b00000000000000000000000000000000000000000000000000000000000000",
    "nonce": 480,
    "publicKey": "0x914873c8d5935837ade39cbdabd6efb3d3d4064c5918da11e555bba0ab2c58fee95974a3222830cf73d257bdc18cfcd01765482108a48e68bc0b657618acb40e",
    "r": "0x79694159e746cf17aa8fbacb76ed80d1f49e7d10a3051dfb8c4939ec9c509081",
    "raw": "0xf9030f8201e08504a817c800836691b79491079b9b96e8ebafe928c61cafeb9de8289e326c80b902a4e660b9e400000000000000000000000000000000000000000000000000000000000000a000000000000000000000000000000000000000000000000000000000000001a0468fc9c005382579139846222b7b0aebc9182ba073b2455938a86d9753bfb078000000000000000000000000000000000000000000000000000000000000738900000000000000000000000096c42c56fdb78294f96b0cfa33c92bed7d75f96a00000000000000000000000000000000000000000000000000000000000000e00000000000000000000000000ce9613684b85287192c57e5051cb009fb266c030000000000000000000000000000000000000000000000000000000000000060000000000000000000000000000000000000000000000000000000000000000a00000000000000000000000000000000000000000000000000000000000000418c36fdf91a12830a189ce2505284f9f7612ddff7e431d2c441c1ca5d433324332db96d1b4ce056b42f9547c7a29e501e053fa54a694b2a5648b40471a5f956dc1c0000000000000000000000000000000000000000000000000000000000000000000000000000000000000000000000000000000000000000000000000000e00000000000000000000000004b28b90d42f9f1a30056f74f6899c6e10597ae680000000000000000000000000000000000000000000000000000000000000060000000000000000000000000000000000000000000000000000000000000031500000000000000000000000000000000000000000000000000000000000000418147671fa5e88a74ac098fbe2bde8bec247e9a4f244a97830dbd3dd25836b31e32d67c11144e151c882b6a1f7e6f12b37cd93509f06f00bba3158141742e20681b00000000000000000000000000000000000000000000000000000000000000827556a079694159e746cf17aa8fbacb76ed80d1f49e7d10a3051dfb8c4939ec9c509081a061acba2fa2916514fea5f29c6006fcafe991b42c6967a5f8c8a238fa611c7998",
    "s": "0x61acba2fa2916514fea5f29c6006fcafe991b42c6967a5f8c8a238fa611c7998",
    "standardV": "0x1",
    "to": "0x91079B9B96e8eBAFE928C61CaFeB9DE8289E326c",
    "transactionIndex": 0,
    "v": "0x7556",
    "value": "0"
  },
  "receipt": {
    "blockHash": "0xb19619ce6ac81dfe4d12292ca1941dd3b66a61fe0ce3c269f7867e4cce95864b",
    "blockNumber": 29570,
    "contractAddress": null,
    "cumulativeGasUsed": 166436,
    "from": "0x9fb29aac15b9a4b7f17c3385939b007540f4d791",
    "gasUsed": 166436,
    "logs": [
      {
        "address": "0x0CE9613684b85287192C57E5051cB009fB266C03",
        "blockHash": "0xb19619ce6ac81dfe4d12292ca1941dd3b66a61fe0ce3c269f7867e4cce95864b",
        "blockNumber": 29570,
        "data": "0x000000000000000000000000000000000000000000000000000000000000000a",
        "logIndex": 0,
        "removed": false,
        "topics": [
          "0xddf252ad1be2c89b69c2b068fc378daa952ba7f163c4a11628f55a4df523b3ef",
          "0x0000000000000000000000009fb29aac15b9a4b7f17c3385939b007540f4d791",
          "0x00000000000000000000000096c42c56fdb78294f96b0cfa33c92bed7d75f96a"
        ],
        "transactionHash": "0xdc5f4db90bfcc711ce4746e96961e5169baaf333b8aedf28c9e59e117a4f7276",
        "transactionIndex": 0,
        "transactionLogIndex": "0x0",
        "type": "mined",
        "id": "log_a35e84d2"
      },
      {
        "address": "0x0CE9613684b85287192C57E5051cB009fB266C03",
        "blockHash": "0xb19619ce6ac81dfe4d12292ca1941dd3b66a61fe0ce3c269f7867e4cce95864b",
        "blockNumber": 29570,
        "data": "0x000000000000000000000000000000000000000000000000000000000000000a000000000000000000000000000000000000000000000000000000000000000a00000000000000000000000000000000000000000000000000000000000000000000000000000000000000000000000000000000000000000000000000000000000000000000000000000000000000000000000000000000000000000000000a",
        "logIndex": 1,
        "removed": false,
        "topics": [
          "0xe6497e3ee548a3372136af2fcb0696db31fc6cf20260707645068bd3fe97f3c4",
          "0x0000000000000000000000006bbafb753bd51ba55f9660216b5923818c8f3072",
          "0x0000000000000000000000009fb29aac15b9a4b7f17c3385939b007540f4d791",
          "0x00000000000000000000000096c42c56fdb78294f96b0cfa33c92bed7d75f96a"
        ],
        "transactionHash": "0xdc5f4db90bfcc711ce4746e96961e5169baaf333b8aedf28c9e59e117a4f7276",
        "transactionIndex": 0,
        "transactionLogIndex": "0x1",
        "type": "mined",
        "id": "log_413902b9"
      },
      {
        "address": "0x4b28b90D42f9F1A30056F74F6899C6E10597AE68",
        "blockHash": "0xb19619ce6ac81dfe4d12292ca1941dd3b66a61fe0ce3c269f7867e4cce95864b",
        "blockNumber": 29570,
        "data": "0x",
        "logIndex": 2,
        "removed": false,
        "topics": [
          "0xddf252ad1be2c89b69c2b068fc378daa952ba7f163c4a11628f55a4df523b3ef",
          "0x00000000000000000000000096c42c56fdb78294f96b0cfa33c92bed7d75f96a",
          "0x0000000000000000000000009fb29aac15b9a4b7f17c3385939b007540f4d791",
          "0x0000000000000000000000000000000000000000000000000000000000000315"
        ],
        "transactionHash": "0xdc5f4db90bfcc711ce4746e96961e5169baaf333b8aedf28c9e59e117a4f7276",
        "transactionIndex": 0,
        "transactionLogIndex": "0x2",
        "type": "mined",
        "id": "log_cf3af0bc"
      },
      {
        "address": "0x4b28b90D42f9F1A30056F74F6899C6E10597AE68",
        "blockHash": "0xb19619ce6ac81dfe4d12292ca1941dd3b66a61fe0ce3c269f7867e4cce95864b",
        "blockNumber": 29570,
        "data": "0x0000000000000000000000000000000000000000000000000000000000000315",
        "logIndex": 3,
        "removed": false,
        "topics": [
          "0x6eabe333476233fd382224f233210cb808a7bc4c4de64f9d76628bf63c677b1a",
          "0x000000000000000000000000dc8614ee2e3594b69af759e2a97f2a2840cfd24a",
          "0x00000000000000000000000096c42c56fdb78294f96b0cfa33c92bed7d75f96a",
          "0x0000000000000000000000009fb29aac15b9a4b7f17c3385939b007540f4d791"
        ],
        "transactionHash": "0xdc5f4db90bfcc711ce4746e96961e5169baaf333b8aedf28c9e59e117a4f7276",
        "transactionIndex": 0,
        "transactionLogIndex": "0x3",
        "type": "mined",
        "id": "log_91b80273"
      }
    ],
    "logsBloom": "0x00000000000000000000000000000000000000000000000800000000000000000000000000000002000040104004000000000000001000000000000000000000000000000000000000000008000001000000000000002000002800000000008000000008000000000000000000000000000000000000000000100010000000000040004000000000000000000000040000000000000000000000000000000000000000000000000000000000040000000000000000000000000000000000000000000002000000000000080000000000000000002000900000008000000000000000000000000000000240000000000000001000000000000000000000000000",
    "root": null,
    "status": true,
    "to": "0x91079b9b96e8ebafe928c61cafeb9de8289e326c",
    "transactionHash": "0xdc5f4db90bfcc711ce4746e96961e5169baaf333b8aedf28c9e59e117a4f7276",
    "transactionIndex": 0
  },
  "block": {
    "author": "0xf0ebfbd01347aaca487358132394a4b87945b553",
    "difficulty": "340282366920938463463374607431768211454",
    "extraData": "0xde830204078f5061726974792d457468657265756d86312e33352e30826d61",
    "gasLimit": 8000000,
    "gasUsed": 166436,
    "hash": "0xb19619ce6ac81dfe4d12292ca1941dd3b66a61fe0ce3c269f7867e4cce95864b",
    "logsBloom": "0x00000000000000000000000000000000000000000000000800000000000000000000000000000002000040104004000000000000001000000000000000000000000000000000000000000008000001000000000000002000002800000000008000000008000000000000000000000000000000000000000000100010000000000040004000000000000000000000040000000000000000000000000000000000000000000000000000000000040000000000000000000000000000000000000000000002000000000000080000000000000000002000900000008000000000000000000000000000000240000000000000001000000000000000000000000000",
    "miner": "0xF0eBFbd01347Aaca487358132394a4B87945B553",
    "number": 29570,
    "parentHash": "0xe15c9fd474f629aea84a1fb05d476fec4decca5498afad58881f64f605f11da8",
    "receiptsRoot": "0x20f8a480ec20ed313f44d3b42a231cb455fa5dcb0b5e7178ef25fc9b824b021f",
    "sealFields": [
      "0x845d82ed6a",
      "0xb841d1d22cbe8e86fc97563c5d47859644767fec73d97aff46995480a044deda4c0d3ad82da5e8f8bd194fccdb7f9759cd2baff9010f97af88b48000435f675456a201"
    ],
    "sha3Uncles": "0x1dcc4de8dec75d7aab85b567b6ccd41ad312451b948a7413f0a142fd40d49347",
    "signature": "d1d22cbe8e86fc97563c5d47859644767fec73d97aff46995480a044deda4c0d3ad82da5e8f8bd194fccdb7f9759cd2baff9010f97af88b48000435f675456a201",
    "size": 1378,
    "stateRoot": "0xdf486406403667db0164835a95f217315f6e3cab67fa062927f91bedf7009c40",
    "step": "1568861546",
    "timestamp": 1568880891,
    "totalDifficulty": "10062149589852150364611987141757384443862805",
    "transactions": [
      {
        "blockHash": "0xb19619ce6ac81dfe4d12292ca1941dd3b66a61fe0ce3c269f7867e4cce95864b",
        "blockNumber": 29570,
        "chainId": "0x3a99",
        "condition": null,
        "creates": null,
        "from": "0x9fB29AAc15b9A4B7F17c3385939b007540f4d791",
        "gas": 6721975,
        "gasPrice": "20000000000",
        "hash": "0xdc5f4db90bfcc711ce4746e96961e5169baaf333b8aedf28c9e59e117a4f7276",
        "input": "0xe660b9e400000000000000000000000000000000000000000000000000000000000000a000000000000000000000000000000000000000000000000000000000000001a0468fc9c005382579139846222b7b0aebc9182ba073b2455938a86d9753bfb078000000000000000000000000000000000000000000000000000000000000738900000000000000000000000096c42c56fdb78294f96b0cfa33c92bed7d75f96a00000000000000000000000000000000000000000000000000000000000000e00000000000000000000000000ce9613684b85287192c57e5051cb009fb266c030000000000000000000000000000000000000000000000000000000000000060000000000000000000000000000000000000000000000000000000000000000a00000000000000000000000000000000000000000000000000000000000000418c36fdf91a12830a189ce2505284f9f7612ddff7e431d2c441c1ca5d433324332db96d1b4ce056b42f9547c7a29e501e053fa54a694b2a5648b40471a5f956dc1c0000000000000000000000000000000000000000000000000000000000000000000000000000000000000000000000000000000000000000000000000000e00000000000000000000000004b28b90d42f9f1a30056f74f6899c6e10597ae680000000000000000000000000000000000000000000000000000000000000060000000000000000000000000000000000000000000000000000000000000031500000000000000000000000000000000000000000000000000000000000000418147671fa5e88a74ac098fbe2bde8bec247e9a4f244a97830dbd3dd25836b31e32d67c11144e151c882b6a1f7e6f12b37cd93509f06f00bba3158141742e20681b00000000000000000000000000000000000000000000000000000000000000",
        "nonce": 480,
        "publicKey": "0x914873c8d5935837ade39cbdabd6efb3d3d4064c5918da11e555bba0ab2c58fee95974a3222830cf73d257bdc18cfcd01765482108a48e68bc0b657618acb40e",
        "r": "0x79694159e746cf17aa8fbacb76ed80d1f49e7d10a3051dfb8c4939ec9c509081",
        "raw": "0xf9030f8201e08504a817c800836691b79491079b9b96e8ebafe928c61cafeb9de8289e326c80b902a4e660b9e400000000000000000000000000000000000000000000000000000000000000a000000000000000000000000000000000000000000000000000000000000001a0468fc9c005382579139846222b7b0aebc9182ba073b2455938a86d9753bfb078000000000000000000000000000000000000000000000000000000000000738900000000000000000000000096c42c56fdb78294f96b0cfa33c92bed7d75f96a00000000000000000000000000000000000000000000000000000000000000e00000000000000000000000000ce9613684b85287192c57e5051cb009fb266c030000000000000000000000000000000000000000000000000000000000000060000000000000000000000000000000000000000000000000000000000000000a00000000000000000000000000000000000000000000000000000000000000418c36fdf91a12830a189ce2505284f9f7612ddff7e431d2c441c1ca5d433324332db96d1b4ce056b42f9547c7a29e501e053fa54a694b2a5648b40471a5f956dc1c0000000000000000000000000000000000000000000000000000000000000000000000000000000000000000000000000000000000000000000000000000e00000000000000000000000004b28b90d42f9f1a30056f74f6899c6e10597ae680000000000000000000000000000000000000000000000000000000000000060000000000000000000000000000000000000000000000000000000000000031500000000000000000000000000000000000000000000000000000000000000418147671fa5e88a74ac098fbe2bde8bec247e9a4f244a97830dbd3dd25836b31e32d67c11144e151c882b6a1f7e6f12b37cd93509f06f00bba3158141742e20681b00000000000000000000000000000000000000000000000000000000000000827556a079694159e746cf17aa8fbacb76ed80d1f49e7d10a3051dfb8c4939ec9c509081a061acba2fa2916514fea5f29c6006fcafe991b42c6967a5f8c8a238fa611c7998",
        "s": "0x61acba2fa2916514fea5f29c6006fcafe991b42c6967a5f8c8a238fa611c7998",
        "standardV": "0x1",
        "to": "0x91079B9B96e8eBAFE928C61CaFeB9DE8289E326c",
        "transactionIndex": 0,
        "v": "0x7556",
        "value": "0"
      }
    ],
    "transactionsRoot": "0xf6653ebecd82e3ada7f42c1af3993823843b7851d211778e1695fc781a57a372",
    "uncles": []
  }
}