module.exports = {
  "tx": {
    "blockHash": "0x13efab51a80c8f2920c8b6cd038bd963704a5e320bb369ad0a208de866504589",
    "blockNumber": 29555,
    "chainId": "0x3a99",
    "condition": null,
    "creates": null,
    "from": "0x9fB29AAc15b9A4B7F17c3385939b007540f4d791",
    "gas": 6721975,
    "gasPrice": "20000000000",
    "hash": "0x0c285962eb744d13ca0ce5532601293acb8dd64279de26381128f20c88479cf4",
    "input": "0xe660b9e400000000000000000000000000000000000000000000000000000000000000a000000000000000000000000000000000000000000000000000000000000001a0468fc9c005382579139846222b7b0aebc9182ba073b2455938a86d9753bfb078000000000000000000000000000000000000000000000000000000000000737b00000000000000000000000096c42c56fdb78294f96b0cfa33c92bed7d75f96a00000000000000000000000000000000000000000000000000000000000000e00000000000000000000000001716e2db270c8fd2dbd2b51c9d8176b70e403fc20000000000000000000000000000000000000000000000000000000000000060000000000000000000000000000000000000000000000000000000000000000a000000000000000000000000000000000000000000000000000000000000004161218912a75ce3692c5ff4bca6b7a0f64a95a18dd80475009321e1906dfaa04047ef8a7d1d3092af2e1194d73f1f3cf174e683f265d68bbfceedae7d40495ccf1c0000000000000000000000000000000000000000000000000000000000000000000000000000000000000000000000000000000000000000000000000000e0000000000000000000000000466aa584620edcb0a5eec7d720a15d0cb8c5f6250000000000000000000000000000000000000000000000000000000000000060000000000000000000000000000000000000000000000000000000000000000500000000000000000000000000000000000000000000000000000000000000415c18d319a47f6f7da64291d26743c3c7e15b4b786f17d6c872219e2758a297cc47ba1eac18fc9df5d305f657d9ea7c4d56252809571c38a6f2aebbe18e0765dd1b00000000000000000000000000000000000000000000000000000000000000",
    "nonce": 473,
    "publicKey": "0x914873c8d5935837ade39cbdabd6efb3d3d4064c5918da11e555bba0ab2c58fee95974a3222830cf73d257bdc18cfcd01765482108a48e68bc0b657618acb40e",
    "r": "0xa6b2e9dfecf87142fdc7079098b80ab2a4aaa2edee46cb6348bcb0ba6648bb75",
    "raw": "0xf9030f8201d98504a817c800836691b79491079b9b96e8ebafe928c61cafeb9de8289e326c80b902a4e660b9e400000000000000000000000000000000000000000000000000000000000000a000000000000000000000000000000000000000000000000000000000000001a0468fc9c005382579139846222b7b0aebc9182ba073b2455938a86d9753bfb078000000000000000000000000000000000000000000000000000000000000737b00000000000000000000000096c42c56fdb78294f96b0cfa33c92bed7d75f96a00000000000000000000000000000000000000000000000000000000000000e00000000000000000000000001716e2db270c8fd2dbd2b51c9d8176b70e403fc20000000000000000000000000000000000000000000000000000000000000060000000000000000000000000000000000000000000000000000000000000000a000000000000000000000000000000000000000000000000000000000000004161218912a75ce3692c5ff4bca6b7a0f64a95a18dd80475009321e1906dfaa04047ef8a7d1d3092af2e1194d73f1f3cf174e683f265d68bbfceedae7d40495ccf1c0000000000000000000000000000000000000000000000000000000000000000000000000000000000000000000000000000000000000000000000000000e0000000000000000000000000466aa584620edcb0a5eec7d720a15d0cb8c5f6250000000000000000000000000000000000000000000000000000000000000060000000000000000000000000000000000000000000000000000000000000000500000000000000000000000000000000000000000000000000000000000000415c18d319a47f6f7da64291d26743c3c7e15b4b786f17d6c872219e2758a297cc47ba1eac18fc9df5d305f657d9ea7c4d56252809571c38a6f2aebbe18e0765dd1b00000000000000000000000000000000000000000000000000000000000000827555a0a6b2e9dfecf87142fdc7079098b80ab2a4aaa2edee46cb6348bcb0ba6648bb75a0156a82222ad332ca54cc80f7853cd76dabf81073ec32d8097f82a94b06e8e6da",
    "s": "0x156a82222ad332ca54cc80f7853cd76dabf81073ec32d8097f82a94b06e8e6da",
    "standardV": "0x0",
    "to": "0x91079B9B96e8eBAFE928C61CaFeB9DE8289E326c",
    "transactionIndex": 0,
    "v": "0x7555",
    "value": "0"
  },
  "receipt": {
    "blockHash": "0x13efab51a80c8f2920c8b6cd038bd963704a5e320bb369ad0a208de866504589",
    "blockNumber": 29555,
    "contractAddress": null,
    "cumulativeGasUsed": 134993,
    "from": "0x9fb29aac15b9a4b7f17c3385939b007540f4d791",
    "gasUsed": 134993,
    "logs": [
      {
        "address": "0x1716E2Db270C8FD2dBd2b51c9D8176b70E403fc2",
        "blockHash": "0x13efab51a80c8f2920c8b6cd038bd963704a5e320bb369ad0a208de866504589",
        "blockNumber": 29555,
        "data": "0x000000000000000000000000000000000000000000000000000000000000000a",
        "logIndex": 0,
        "removed": false,
        "topics": [
          "0xddf252ad1be2c89b69c2b068fc378daa952ba7f163c4a11628f55a4df523b3ef",
          "0x0000000000000000000000009fb29aac15b9a4b7f17c3385939b007540f4d791",
          "0x00000000000000000000000096c42c56fdb78294f96b0cfa33c92bed7d75f96a"
        ],
        "transactionHash": "0x0c285962eb744d13ca0ce5532601293acb8dd64279de26381128f20c88479cf4",
        "transactionIndex": 0,
        "transactionLogIndex": "0x0",
        "type": "mined",
        "id": "log_c15e0150"
      },
      {
        "address": "0x1716E2Db270C8FD2dBd2b51c9D8176b70E403fc2",
        "blockHash": "0x13efab51a80c8f2920c8b6cd038bd963704a5e320bb369ad0a208de866504589",
        "blockNumber": 29555,
        "data": "0x000000000000000000000000000000000000000000000000000000000000000a000000000000000000000000000000000000000000000000000000000000000a00000000000000000000000000000000000000000000000000000000000000000000000000000000000000000000000000000000000000000000000000000000000000000000000000000000000000000000000000000000000000000000000a",
        "logIndex": 1,
        "removed": false,
        "topics": [
          "0xe6497e3ee548a3372136af2fcb0696db31fc6cf20260707645068bd3fe97f3c4",
          "0x000000000000000000000000a52025a37bae466432378affe4b09b2957d67410",
          "0x0000000000000000000000009fb29aac15b9a4b7f17c3385939b007540f4d791",
          "0x00000000000000000000000096c42c56fdb78294f96b0cfa33c92bed7d75f96a"
        ],
        "transactionHash": "0x0c285962eb744d13ca0ce5532601293acb8dd64279de26381128f20c88479cf4",
        "transactionIndex": 0,
        "transactionLogIndex": "0x1",
        "type": "mined",
        "id": "log_3831e516"
      },
      {
        "address": "0x466aA584620EdCb0A5eEC7D720a15d0CB8c5F625",
        "blockHash": "0x13efab51a80c8f2920c8b6cd038bd963704a5e320bb369ad0a208de866504589",
        "blockNumber": 29555,
        "data": "0x0000000000000000000000000000000000000000000000000000000000000005",
        "logIndex": 2,
        "removed": false,
        "topics": [
          "0xddf252ad1be2c89b69c2b068fc378daa952ba7f163c4a11628f55a4df523b3ef",
          "0x00000000000000000000000096c42c56fdb78294f96b0cfa33c92bed7d75f96a",
          "0x0000000000000000000000009fb29aac15b9a4b7f17c3385939b007540f4d791"
        ],
        "transactionHash": "0x0c285962eb744d13ca0ce5532601293acb8dd64279de26381128f20c88479cf4",
        "transactionIndex": 0,
        "transactionLogIndex": "0x2",
        "type": "mined",
        "id": "log_b8123e1f"
      },
      {
        "address": "0x466aA584620EdCb0A5eEC7D720a15d0CB8c5F625",
        "blockHash": "0x13efab51a80c8f2920c8b6cd038bd963704a5e320bb369ad0a208de866504589",
        "blockNumber": 29555,
        "data": "0x00000000000000000000000000000000000000000000000000000000000000050000000000000000000000000000000000000000000000000000000000000005000000000000000000000000000000000000000000000000000000000000000000000000000000000000000000000000000000000000000000000000000000000000000000000000000000000000000000000000000000000000000000000005",
        "logIndex": 3,
        "removed": false,
        "topics": [
          "0xe6497e3ee548a3372136af2fcb0696db31fc6cf20260707645068bd3fe97f3c4",
          "0x00000000000000000000000048a9abb445ba43d8584db6fcca0c6bb5027b3eb9",
          "0x00000000000000000000000096c42c56fdb78294f96b0cfa33c92bed7d75f96a",
          "0x0000000000000000000000009fb29aac15b9a4b7f17c3385939b007540f4d791"
        ],
        "transactionHash": "0x0c285962eb744d13ca0ce5532601293acb8dd64279de26381128f20c88479cf4",
        "transactionIndex": 0,
        "transactionLogIndex": "0x3",
        "type": "mined",
        "id": "log_207a76af"
      }
    ],
    "logsBloom": "0x0000000000000000000000000000000000000010000000000000000000000000000000020000000800004010000400000000000000000000000000000000000000000000000000000000000800000000000000000004200000200000000000000000000000000000000000000000000000000000000000000000001000000000010000000000000000000400000000000000400000000000000000000000000000000000000000000000000000000000000800000000000000000000000000000000000200000000000000000000000000000000400080000000800000000000000000000000000000024000000000000000000000000a001000000000000000",
    "root": null,
    "status": true,
    "to": "0x91079b9b96e8ebafe928c61cafeb9de8289e326c",
    "transactionHash": "0x0c285962eb744d13ca0ce5532601293acb8dd64279de26381128f20c88479cf4",
    "transactionIndex": 0
  },
  "block": {
    "author": "0xf0ebfbd01347aaca487358132394a4b87945b553",
    "difficulty": "340282366920938463463374607431768211454",
    "extraData": "0xde830204078f5061726974792d457468657265756d86312e33352e30826d61",
    "gasLimit": 8000000,
    "gasUsed": 134993,
    "hash": "0x13efab51a80c8f2920c8b6cd038bd963704a5e320bb369ad0a208de866504589",
    "logsBloom": "0x0000000000000000000000000000000000000010000000000000000000000000000000020000000800004010000400000000000000000000000000000000000000000000000000000000000800000000000000000004200000200000000000000000000000000000000000000000000000000000000000000000001000000000010000000000000000000400000000000000400000000000000000000000000000000000000000000000000000000000000800000000000000000000000000000000000200000000000000000000000000000000400080000000800000000000000000000000000000024000000000000000000000000a001000000000000000",
    "miner": "0xF0eBFbd01347Aaca487358132394a4B87945B553",
    "number": 29555,
    "parentHash": "0x89c57b3a8bcaef139176838cd750f833e1b09f8e120fbc0056df2318f0dd8955",
    "receiptsRoot": "0x6309eb36162d967efe389eabdb90dfbd54eb4c57c0e3fc885770f82f733371f3",
    "sealFields": [
      "0x845d82ed5b",
      "0xb841151e68ce761a6f40a130f56713e4551fe23a6d6dc27f3ba6aff0128cbed8dc890484824d15620992d8e1f841850b8f4cc86c2cff69f4e42d066d9d5dd31ef3fe00"
    ],
    "sha3Uncles": "0x1dcc4de8dec75d7aab85b567b6ccd41ad312451b948a7413f0a142fd40d49347",
    "signature": "151e68ce761a6f40a130f56713e4551fe23a6d6dc27f3ba6aff0128cbed8dc890484824d15620992d8e1f841850b8f4cc86c2cff69f4e42d066d9d5dd31ef3fe00",
    "size": 1378,
    "stateRoot": "0x4045391c389d4812dcac3e8c45ef1735153d97d6811396797f96eb000b99c30e",
    "step": "1568861531",
    "timestamp": 1568880876,
    "totalDifficulty": "10057045354348336287660036522645907920690995",
    "transactions": [
      {
        "blockHash": "0x13efab51a80c8f2920c8b6cd038bd963704a5e320bb369ad0a208de866504589",
        "blockNumber": 29555,
        "chainId": "0x3a99",
        "condition": null,
        "creates": null,
        "from": "0x9fB29AAc15b9A4B7F17c3385939b007540f4d791",
        "gas": 6721975,
        "gasPrice": "20000000000",
        "hash": "0x0c285962eb744d13ca0ce5532601293acb8dd64279de26381128f20c88479cf4",
        "input": "0xe660b9e400000000000000000000000000000000000000000000000000000000000000a000000000000000000000000000000000000000000000000000000000000001a0468fc9c005382579139846222b7b0aebc9182ba073b2455938a86d9753bfb078000000000000000000000000000000000000000000000000000000000000737b00000000000000000000000096c42c56fdb78294f96b0cfa33c92bed7d75f96a00000000000000000000000000000000000000000000000000000000000000e00000000000000000000000001716e2db270c8fd2dbd2b51c9d8176b70e403fc20000000000000000000000000000000000000000000000000000000000000060000000000000000000000000000000000000000000000000000000000000000a000000000000000000000000000000000000000000000000000000000000004161218912a75ce3692c5ff4bca6b7a0f64a95a18dd80475009321e1906dfaa04047ef8a7d1d3092af2e1194d73f1f3cf174e683f265d68bbfceedae7d40495ccf1c0000000000000000000000000000000000000000000000000000000000000000000000000000000000000000000000000000000000000000000000000000e0000000000000000000000000466aa584620edcb0a5eec7d720a15d0cb8c5f6250000000000000000000000000000000000000000000000000000000000000060000000000000000000000000000000000000000000000000000000000000000500000000000000000000000000000000000000000000000000000000000000415c18d319a47f6f7da64291d26743c3c7e15b4b786f17d6c872219e2758a297cc47ba1eac18fc9df5d305f657d9ea7c4d56252809571c38a6f2aebbe18e0765dd1b00000000000000000000000000000000000000000000000000000000000000",
        "nonce": 473,
        "publicKey": "0x914873c8d5935837ade39cbdabd6efb3d3d4064c5918da11e555bba0ab2c58fee95974a3222830cf73d257bdc18cfcd01765482108a48e68bc0b657618acb40e",
        "r": "0xa6b2e9dfecf87142fdc7079098b80ab2a4aaa2edee46cb6348bcb0ba6648bb75",
        "raw": "0xf9030f8201d98504a817c800836691b79491079b9b96e8ebafe928c61cafeb9de8289e326c80b902a4e660b9e400000000000000000000000000000000000000000000000000000000000000a000000000000000000000000000000000000000000000000000000000000001a0468fc9c005382579139846222b7b0aebc9182ba073b2455938a86d9753bfb078000000000000000000000000000000000000000000000000000000000000737b00000000000000000000000096c42c56fdb78294f96b0cfa33c92bed7d75f96a00000000000000000000000000000000000000000000000000000000000000e00000000000000000000000001716e2db270c8fd2dbd2b51c9d8176b70e403fc20000000000000000000000000000000000000000000000000000000000000060000000000000000000000000000000000000000000000000000000000000000a000000000000000000000000000000000000000000000000000000000000004161218912a75ce3692c5ff4bca6b7a0f64a95a18dd80475009321e1906dfaa04047ef8a7d1d3092af2e1194d73f1f3cf174e683f265d68bbfceedae7d40495ccf1c0000000000000000000000000000000000000000000000000000000000000000000000000000000000000000000000000000000000000000000000000000e0000000000000000000000000466aa584620edcb0a5eec7d720a15d0cb8c5f6250000000000000000000000000000000000000000000000000000000000000060000000000000000000000000000000000000000000000000000000000000000500000000000000000000000000000000000000000000000000000000000000415c18d319a47f6f7da64291d26743c3c7e15b4b786f17d6c872219e2758a297cc47ba1eac18fc9df5d305f657d9ea7c4d56252809571c38a6f2aebbe18e0765dd1b00000000000000000000000000000000000000000000000000000000000000827555a0a6b2e9dfecf87142fdc7079098b80ab2a4aaa2edee46cb6348bcb0ba6648bb75a0156a82222ad332ca54cc80f7853cd76dabf81073ec32d8097f82a94b06e8e6da",
        "s": "0x156a82222ad332ca54cc80f7853cd76dabf81073ec32d8097f82a94b06e8e6da",
        "standardV": "0x0",
        "to": "0x91079B9B96e8eBAFE928C61CaFeB9DE8289E326c",
        "transactionIndex": 0,
        "v": "0x7555",
        "value": "0"
      }
    ],
    "transactionsRoot": "0x2f5a760edb005c5f1bfc4453d3f1100836a454a7f0abff60cf7ef2511814de68",
    "uncles": []
  }
}