module.exports = {
  "tx": {
    "blockHash": "0xbab47df45b49e0c07b49b62334ba82a504680d248e46def7380b398bc805b726",
    "blockNumber": 2636,
    "chainId": "0xd",
    "condition": null,
    "creates": null,
    "from": "0x96C42C56fdb78294F96B0cFa33c92bed7D75F96a",
    "gas": 6721975,
    "gasPrice": "20000000000",
    "hash": "0x0203f657637251fd00c75473f9c73c9a3f940d5074b8e106b5b0ff39f83d2fbb",
    "input": "0x19d27d9c00000000000000000000000000000000000000000000000000000000000000a0000000000000000000000000000000000000000000000000000000000000000319c8c142485a81685ca8a7f259dcedee58ddbf850000000000000000000000000000000000000000000000000000000000000000000000000000000000000a54000000000000000000000000f4acffb8bb1ca88cbc61b9c7dac0b96a641151210000000000000000000000000000000000000000000000000000000000000041427001f85adf86d15654128a6383dbf8005b562a687d75c85fd715e148e0f51c212f9458ef8533efb117dd293e3b1d2a30eb8f50aff845abad5836a4e60a12aa1b00000000000000000000000000000000000000000000000000000000000000",
    "nonce": 5,
    "publicKey": "0x90718dcbc2477c86294742fb72bf098ba85ff671b88c8d79b2e09ce19bdbd88fd87047aaebc775b168372752aa8bc4e5be1ca5d39284fed00722f341927888c3",
    "r": "0xf7fcd181679ed7f4096aebf73b61fd51e810196499203ffb23a00772277e5507",
    "raw": "0xf9018b058504a817c800836691b79450fb6a404a4554bc8dbfa859b1f82d740c8c884f80b9012419d27d9c00000000000000000000000000000000000000000000000000000000000000a0000000000000000000000000000000000000000000000000000000000000000319c8c142485a81685ca8a7f259dcedee58ddbf850000000000000000000000000000000000000000000000000000000000000000000000000000000000000a54000000000000000000000000f4acffb8bb1ca88cbc61b9c7dac0b96a641151210000000000000000000000000000000000000000000000000000000000000041427001f85adf86d15654128a6383dbf8005b562a687d75c85fd715e148e0f51c212f9458ef8533efb117dd293e3b1d2a30eb8f50aff845abad5836a4e60a12aa1b000000000000000000000000000000000000000000000000000000000000003ea0f7fcd181679ed7f4096aebf73b61fd51e810196499203ffb23a00772277e5507a0775fbb59e86b51f62c471c359c82ca70d576c064aae0c4300c13d80011744d23",
    "s": "0x775fbb59e86b51f62c471c359c82ca70d576c064aae0c4300c13d80011744d23",
    "standardV": "0x1",
    "to": "0x50fb6a404A4554Bc8dBFa859b1f82d740C8C884f",
    "transactionIndex": 0,
    "v": "0x3e",
    "value": "0"
  },
  "receipt": {
    "blockHash": "0xbab47df45b49e0c07b49b62334ba82a504680d248e46def7380b398bc805b726",
    "blockNumber": 2636,
    "contractAddress": null,
    "cumulativeGasUsed": 89645,
    "from": "0x96c42c56fdb78294f96b0cfa33c92bed7d75f96a",
    "gasUsed": 89645,
    "logs": [
      {
        "address": "0x50fb6a404A4554Bc8dBFa859b1f82d740C8C884f",
        "blockHash": "0xbab47df45b49e0c07b49b62334ba82a504680d248e46def7380b398bc805b726",
        "blockNumber": 2636,
        "data": "0x0000000000000000000000000000000000000000000000000000000000000003",
        "logIndex": 0,
        "removed": false,
        "topics": [
          "0xddf252ad1be2c89b69c2b068fc378daa952ba7f163c4a11628f55a4df523b3ef",
          "0x0000000000000000000000009fb29aac15b9a4b7f17c3385939b007540f4d791",
          "0x000000000000000000000000f4acffb8bb1ca88cbc61b9c7dac0b96a64115121"
        ],
        "transactionHash": "0x0203f657637251fd00c75473f9c73c9a3f940d5074b8e106b5b0ff39f83d2fbb",
        "transactionIndex": 0,
        "transactionLogIndex": "0x0",
        "type": "mined",
        "id": "log_15605862"
      },
      {
        "address": "0x50fb6a404A4554Bc8dBFa859b1f82d740C8C884f",
        "blockHash": "0xbab47df45b49e0c07b49b62334ba82a504680d248e46def7380b398bc805b726",
        "blockNumber": 2636,
        "data": "0x0000000000000000000000000000000000000000000000000000000000000003000000000000000000000000000000000000000000000000000000000000000a000000000000000000000000000000000000000000000000000000000000000000000000000000000000000000000000000000000000000000000000000000070000000000000000000000000000000000000000000000000000000000000003",
        "logIndex": 1,
        "removed": false,
        "topics": [
          "0xe6497e3ee548a3372136af2fcb0696db31fc6cf20260707645068bd3fe97f3c4",
          "0x0000000000000000000000005816924046156a8163a86400efc0bf255c1098b7",
          "0x0000000000000000000000009fb29aac15b9a4b7f17c3385939b007540f4d791",
          "0x000000000000000000000000f4acffb8bb1ca88cbc61b9c7dac0b96a64115121"
        ],
        "transactionHash": "0x0203f657637251fd00c75473f9c73c9a3f940d5074b8e106b5b0ff39f83d2fbb",
        "transactionIndex": 0,
        "transactionLogIndex": "0x1",
        "type": "mined",
        "id": "log_c2b935ce"
      }
    ],
    "logsBloom": "0x00000000000008000000000000000000000000000000000000000000000000000008004000000000000000100004000000000000000000000000000000000000000000000000040000008008000000000000000000002000002000000000000000010000000000000000000000000000000000000000080000000010000000000000000000000000000000000000000000000000000000000000000010000000000000000000000000000000000000000000000000000000000000000000000000000002000000000020000000000000000000000000800000008000000000000000000000000000000000000000000000000000000000000000000000000000",
    "root": null,
    "status": true,
    "to": "0x50fb6a404a4554bc8dbfa859b1f82d740c8c884f",
    "transactionHash": "0x0203f657637251fd00c75473f9c73c9a3f940d5074b8e106b5b0ff39f83d2fbb",
    "transactionIndex": 0
  },
  "block": {
    "author": "0xf0ebfbd01347aaca487358132394a4b87945b553",
    "difficulty": "340282366920938463463374607431768211454",
    "extraData": "0xde830204078f5061726974792d457468657265756d86312e33352e30826d61",
    "gasLimit": 5229938832,
    "gasUsed": 89645,
    "hash": "0xbab47df45b49e0c07b49b62334ba82a504680d248e46def7380b398bc805b726",
    "logsBloom": "0x00000000000008000000000000000000000000000000000000000000000000000008004000000000000000100004000000000000000000000000000000000000000000000000040000008008000000000000000000002000002000000000000000010000000000000000000000000000000000000000080000000010000000000000000000000000000000000000000000000000000000000000000010000000000000000000000000000000000000000000000000000000000000000000000000000002000000000020000000000000000000000000800000008000000000000000000000000000000000000000000000000000000000000000000000000000",
    "miner": "0xF0eBFbd01347Aaca487358132394a4B87945B553",
    "number": 2636,
    "parentHash": "0x9a889ac663145ce9fefaffefde5c246f7c2f958de966d194e59ca3fb0bc8a010",
    "receiptsRoot": "0x5c81cabe9a28ef65de63accbb521a9b21770d04356a5f94c3b235f6792e545b7",
    "sealFields": [
      "0x845d5846e4",
      "0xb84148b8760e9c3f94151189d53d0e1fc384362a6819e512c500d2ce6d19017ba77d0c20402683463e1749a9241bb87b8078dee0be85b3fb9071a6cf8d392ff274ca00"
    ],
    "sha3Uncles": "0x1dcc4de8dec75d7aab85b567b6ccd41ad312451b948a7413f0a142fd40d49347",
    "signature": "48b8760e9c3f94151189d53d0e1fc384362a6819e512c500d2ce6d19017ba77d0c20402683463e1749a9241bb87b8078dee0be85b3fb9071a6cf8d392ff274ca00",
    "size": 992,
    "stateRoot": "0x41d5a17f0b320ea210017118e13a94783b8767184570e32ff8c92959df8035aa",
    "step": "1566066404",
    "timestamp": 1566066404,
    "totalDifficulty": "896984319203593789689455465190139439328977",
    "transactions": [
      {
        "blockHash": "0xbab47df45b49e0c07b49b62334ba82a504680d248e46def7380b398bc805b726",
        "blockNumber": 2636,
        "chainId": "0xd",
        "condition": null,
        "creates": null,
        "from": "0x96C42C56fdb78294F96B0cFa33c92bed7D75F96a",
        "gas": 6721975,
        "gasPrice": "20000000000",
        "hash": "0x0203f657637251fd00c75473f9c73c9a3f940d5074b8e106b5b0ff39f83d2fbb",
        "input": "0x19d27d9c00000000000000000000000000000000000000000000000000000000000000a0000000000000000000000000000000000000000000000000000000000000000319c8c142485a81685ca8a7f259dcedee58ddbf850000000000000000000000000000000000000000000000000000000000000000000000000000000000000a54000000000000000000000000f4acffb8bb1ca88cbc61b9c7dac0b96a641151210000000000000000000000000000000000000000000000000000000000000041427001f85adf86d15654128a6383dbf8005b562a687d75c85fd715e148e0f51c212f9458ef8533efb117dd293e3b1d2a30eb8f50aff845abad5836a4e60a12aa1b00000000000000000000000000000000000000000000000000000000000000",
        "nonce": 5,
        "publicKey": "0x90718dcbc2477c86294742fb72bf098ba85ff671b88c8d79b2e09ce19bdbd88fd87047aaebc775b168372752aa8bc4e5be1ca5d39284fed00722f341927888c3",
        "r": "0xf7fcd181679ed7f4096aebf73b61fd51e810196499203ffb23a00772277e5507",
        "raw": "0xf9018b058504a817c800836691b79450fb6a404a4554bc8dbfa859b1f82d740c8c884f80b9012419d27d9c00000000000000000000000000000000000000000000000000000000000000a0000000000000000000000000000000000000000000000000000000000000000319c8c142485a81685ca8a7f259dcedee58ddbf850000000000000000000000000000000000000000000000000000000000000000000000000000000000000a54000000000000000000000000f4acffb8bb1ca88cbc61b9c7dac0b96a641151210000000000000000000000000000000000000000000000000000000000000041427001f85adf86d15654128a6383dbf8005b562a687d75c85fd715e148e0f51c212f9458ef8533efb117dd293e3b1d2a30eb8f50aff845abad5836a4e60a12aa1b000000000000000000000000000000000000000000000000000000000000003ea0f7fcd181679ed7f4096aebf73b61fd51e810196499203ffb23a00772277e5507a0775fbb59e86b51f62c471c359c82ca70d576c064aae0c4300c13d80011744d23",
        "s": "0x775fbb59e86b51f62c471c359c82ca70d576c064aae0c4300c13d80011744d23",
        "standardV": "0x1",
        "to": "0x50fb6a404A4554Bc8dBFa859b1f82d740C8C884f",
        "transactionIndex": 0,
        "v": "0x3e",
        "value": "0"
      }
    ],
    "transactionsRoot": "0x80455a7f796bdd0fdf95854da9dc091e5d25de8570eab054e977682dbeced6e1",
    "uncles": []
  }
}