module.exports = {
  "tx": {
    "blockHash": "0x51aff8cd61bfc867bd1b8c4916143e561fb10e4566c1fac7e580ca122760741f",
    "blockNumber": 22771,
    "chainId": "0x3a99",
    "condition": null,
    "creates": null,
    "from": "0x9fB29AAc15b9A4B7F17c3385939b007540f4d791",
    "gas": 6721975,
    "gasPrice": "20000000000",
    "hash": "0x8dec5251aec32b3a21e1efe75b73f596bfd69b90f4819f9fca30d96f78c0a95b",
    "input": "0x50bb4e7f0000000000000000000000009fb29aac15b9a4b7f17c3385939b007540f4d7917ea6231da35326b404e53aa156636bf3b5401c910db9c7b9d6488172a80e9b9a0000000000000000000000000000000000000000000000000000000000000060000000000000000000000000000000000000000000000000000000000000005568747470733a2f2f746f6b656e732e636f6d2f3078376561363233316461333533323662343034653533616131353636333662663362353430316339313064623963376239643634383831373261383065396239610000000000000000000000",
    "nonce": 401,
    "publicKey": "0x914873c8d5935837ade39cbdabd6efb3d3d4064c5918da11e555bba0ab2c58fee95974a3222830cf73d257bdc18cfcd01765482108a48e68bc0b657618acb40e",
    "r": "0x6a2d26c512ebafd543b8bfa07c09a6e90d9e2cffd33f8e9f623e9c6848110204",
    "raw": "0xf9014e8201918504a817c800836691b794092ff040d892d60835460553ee4a1883c748d21980b8e450bb4e7f0000000000000000000000009fb29aac15b9a4b7f17c3385939b007540f4d7917ea6231da35326b404e53aa156636bf3b5401c910db9c7b9d6488172a80e9b9a0000000000000000000000000000000000000000000000000000000000000060000000000000000000000000000000000000000000000000000000000000005568747470733a2f2f746f6b656e732e636f6d2f3078376561363233316461333533323662343034653533616131353636333662663362353430316339313064623963376239643634383831373261383065396239610000000000000000000000827556a06a2d26c512ebafd543b8bfa07c09a6e90d9e2cffd33f8e9f623e9c6848110204a02e572d8bb2c8443d6ef1745037af2a456a4900c8f131896fecc915bef36a80d1",
    "s": "0x2e572d8bb2c8443d6ef1745037af2a456a4900c8f131896fecc915bef36a80d1",
    "standardV": "0x1",
    "to": "0x092FF040D892D60835460553Ee4a1883c748d219",
    "transactionIndex": 0,
    "v": "0x7556",
    "value": "0"
  },
  "receipt": {
    "blockHash": "0x51aff8cd61bfc867bd1b8c4916143e561fb10e4566c1fac7e580ca122760741f",
    "blockNumber": 22771,
    "contractAddress": null,
    "cumulativeGasUsed": 247175,
    "from": "0x9fb29aac15b9a4b7f17c3385939b007540f4d791",
    "gasUsed": 247175,
    "logs": [
      {
        "address": "0x092FF040D892D60835460553Ee4a1883c748d219",
        "blockHash": "0x51aff8cd61bfc867bd1b8c4916143e561fb10e4566c1fac7e580ca122760741f",
        "blockNumber": 22771,
        "data": "0x",
        "logIndex": 0,
        "removed": false,
        "topics": [
          "0xddf252ad1be2c89b69c2b068fc378daa952ba7f163c4a11628f55a4df523b3ef",
          "0x0000000000000000000000000000000000000000000000000000000000000000",
          "0x0000000000000000000000009fb29aac15b9a4b7f17c3385939b007540f4d791",
          "0x7ea6231da35326b404e53aa156636bf3b5401c910db9c7b9d6488172a80e9b9a"
        ],
        "transactionHash": "0x8dec5251aec32b3a21e1efe75b73f596bfd69b90f4819f9fca30d96f78c0a95b",
        "transactionIndex": 0,
        "transactionLogIndex": "0x0",
        "type": "mined",
        "id": "log_f039e412"
      }
    ],
    "logsBloom": "0x00000000000000000000000000000000000000000000000000000000000000000000000000000010000000000004000000000000000000000000000000000000000000000000000000000008000000000000000000002000002000000100000000000000020000000000000000000800000000800000000000000010000000004000000000000000000000000000000080000000000000000000000000000000000000000000000000000000000000000000000000000000000000000000000000000002000000000400000000000000000000000000000000000000000020000000000000000000000000000000000000000000000000000000000000000000",
    "root": null,
    "status": true,
    "to": "0x092ff040d892d60835460553ee4a1883c748d219",
    "transactionHash": "0x8dec5251aec32b3a21e1efe75b73f596bfd69b90f4819f9fca30d96f78c0a95b",
    "transactionIndex": 0
  },
  "block": {
    "author": "0xf0ebfbd01347aaca487358132394a4b87945b553",
    "difficulty": "340282366920938463463374607431768211454",
    "extraData": "0xde830204078f5061726974792d457468657265756d86312e33352e30826d61",
    "gasLimit": 8000000,
    "gasUsed": 247175,
    "hash": "0x51aff8cd61bfc867bd1b8c4916143e561fb10e4566c1fac7e580ca122760741f",
    "logsBloom": "0x00000000000000000000000000000000000000000000000000000000000000000000000000000010000000000004000000000000000000000000000000000000000000000000000000000008000000000000000000002000002000000100000000000000020000000000000000000800000000800000000000000010000000004000000000000000000000000000000080000000000000000000000000000000000000000000000000000000000000000000000000000000000000000000000000000002000000000400000000000000000000000000000000000000000020000000000000000000000000000000000000000000000000000000000000000000",
    "miner": "0xF0eBFbd01347Aaca487358132394a4B87945B553",
    "number": 22771,
    "parentHash": "0xf7ca5225656c171095a1d3d98a9f4be39b92f6737b7bf1b71d08b007e5709c89",
    "receiptsRoot": "0xc10845b87c9d54af4d124625b3d0f52bf9e82a12e1c1a62fa9c8a2fd4051b855",
    "sealFields": [
      "0x845db839ad",
      "0xb8412eb0dfba4ab0c71206585c76681be4b5f26a4d7aec34ca0696efdc5bdec47e8876bb6faca62798dae6396743697017207e54cce56188011c4ac0dcaf0c9247dc00"
    ],
    "sha3Uncles": "0x1dcc4de8dec75d7aab85b567b6ccd41ad312451b948a7413f0a142fd40d49347",
    "signature": "2eb0dfba4ab0c71206585c76681be4b5f26a4d7aec34ca0696efdc5bdec47e8876bb6faca62798dae6396743697017207e54cce56188011c4ac0dcaf0c9247dc00",
    "size": 929,
    "stateRoot": "0x659a4f569a7aad51e8aa0f14622ebf80ea5377ed07f0fa54fe0bdcfbbf212b59",
    "step": "1572354477",
    "timestamp": 1572354477,
    "totalDifficulty": "7748569777156689751524503185828792370687329",
    "transactions": [
      {
        "blockHash": "0x51aff8cd61bfc867bd1b8c4916143e561fb10e4566c1fac7e580ca122760741f",
        "blockNumber": 22771,
        "chainId": "0x3a99",
        "condition": null,
        "creates": null,
        "from": "0x9fB29AAc15b9A4B7F17c3385939b007540f4d791",
        "gas": 6721975,
        "gasPrice": "20000000000",
        "hash": "0x8dec5251aec32b3a21e1efe75b73f596bfd69b90f4819f9fca30d96f78c0a95b",
        "input": "0x50bb4e7f0000000000000000000000009fb29aac15b9a4b7f17c3385939b007540f4d7917ea6231da35326b404e53aa156636bf3b5401c910db9c7b9d6488172a80e9b9a0000000000000000000000000000000000000000000000000000000000000060000000000000000000000000000000000000000000000000000000000000005568747470733a2f2f746f6b656e732e636f6d2f3078376561363233316461333533323662343034653533616131353636333662663362353430316339313064623963376239643634383831373261383065396239610000000000000000000000",
        "nonce": 401,
        "publicKey": "0x914873c8d5935837ade39cbdabd6efb3d3d4064c5918da11e555bba0ab2c58fee95974a3222830cf73d257bdc18cfcd01765482108a48e68bc0b657618acb40e",
        "r": "0x6a2d26c512ebafd543b8bfa07c09a6e90d9e2cffd33f8e9f623e9c6848110204",
        "raw": "0xf9014e8201918504a817c800836691b794092ff040d892d60835460553ee4a1883c748d21980b8e450bb4e7f0000000000000000000000009fb29aac15b9a4b7f17c3385939b007540f4d7917ea6231da35326b404e53aa156636bf3b5401c910db9c7b9d6488172a80e9b9a0000000000000000000000000000000000000000000000000000000000000060000000000000000000000000000000000000000000000000000000000000005568747470733a2f2f746f6b656e732e636f6d2f3078376561363233316461333533323662343034653533616131353636333662663362353430316339313064623963376239643634383831373261383065396239610000000000000000000000827556a06a2d26c512ebafd543b8bfa07c09a6e90d9e2cffd33f8e9f623e9c6848110204a02e572d8bb2c8443d6ef1745037af2a456a4900c8f131896fecc915bef36a80d1",
        "s": "0x2e572d8bb2c8443d6ef1745037af2a456a4900c8f131896fecc915bef36a80d1",
        "standardV": "0x1",
        "to": "0x092FF040D892D60835460553Ee4a1883c748d219",
        "transactionIndex": 0,
        "v": "0x7556",
        "value": "0"
      }
    ],
    "transactionsRoot": "0x75097fcba3f55b7b8ebc5f5547c86a80038036495be3810251799b3f7a5180d2",
    "uncles": []
  }
}