module.exports = {
  "tx": {
    "blockHash": "0x8d11edc0c54164c842dbf9b8162d2d4c8423b4a7feaef66d10d84d0680280866",
    "blockNumber": 9303,
    "chainId": "0x3a99",
    "condition": null,
    "creates": null,
    "from": "0x9fB29AAc15b9A4B7F17c3385939b007540f4d791",
    "gas": 6721975,
    "gasPrice": "20000000000",
    "hash": "0xb743ea39b1af4227ad3466f4cd6330daae60eeaeecbbbf9de4022e137a9cf81d",
    "input": "0x40c10f190000000000000000000000009fb29aac15b9a4b7f17c3385939b007540f4d791d9d9599985b09c517488b4c1c65a1f8ce6bb93881e8168b606dfe99b64d1a81c",
    "nonce": 217,
    "publicKey": "0x914873c8d5935837ade39cbdabd6efb3d3d4064c5918da11e555bba0ab2c58fee95974a3222830cf73d257bdc18cfcd01765482108a48e68bc0b657618acb40e",
    "r": "0x61f4824c0e08625d7037a2b8f60fb77a2acc27c8ed4bcfde321192742a09e8c",
    "raw": "0xf8ad81d98504a817c800836691b794c91699ee25e0eaebb17a4027f015af9822346aa880b84440c10f190000000000000000000000009fb29aac15b9a4b7f17c3385939b007540f4d791d9d9599985b09c517488b4c1c65a1f8ce6bb93881e8168b606dfe99b64d1a81c827556a0061f4824c0e08625d7037a2b8f60fb77a2acc27c8ed4bcfde321192742a09e8ca067dbbe62db4f1171523f8cc22904bd257d3971396484661ab76faedce986fcf9",
    "s": "0x67dbbe62db4f1171523f8cc22904bd257d3971396484661ab76faedce986fcf9",
    "standardV": "0x1",
    "to": "0xC91699Ee25E0EaEBb17A4027f015AF9822346aa8",
    "transactionIndex": 0,
    "v": "0x7556",
    "value": "0"
  },
  "receipt": {
    "blockHash": "0x8d11edc0c54164c842dbf9b8162d2d4c8423b4a7feaef66d10d84d0680280866",
    "blockNumber": 9303,
    "contractAddress": null,
    "cumulativeGasUsed": 159414,
    "from": "0x9fb29aac15b9a4b7f17c3385939b007540f4d791",
    "gasUsed": 159414,
    "logs": [
      {
        "address": "0xC91699Ee25E0EaEBb17A4027f015AF9822346aa8",
        "blockHash": "0x8d11edc0c54164c842dbf9b8162d2d4c8423b4a7feaef66d10d84d0680280866",
        "blockNumber": 9303,
        "data": "0x",
        "logIndex": 0,
        "removed": false,
        "topics": [
          "0xddf252ad1be2c89b69c2b068fc378daa952ba7f163c4a11628f55a4df523b3ef",
          "0x0000000000000000000000000000000000000000000000000000000000000000",
          "0x0000000000000000000000009fb29aac15b9a4b7f17c3385939b007540f4d791",
          "0xd9d9599985b09c517488b4c1c65a1f8ce6bb93881e8168b606dfe99b64d1a81c"
        ],
        "transactionHash": "0xb743ea39b1af4227ad3466f4cd6330daae60eeaeecbbbf9de4022e137a9cf81d",
        "transactionIndex": 0,
        "transactionLogIndex": "0x0",
        "type": "mined",
        "id": "log_71de14a6"
      }
    ],
    "logsBloom": "0x00000000000000000000000000000000000000000010000000000000000000000000000000000000000000000004000000000000000000000000000000000000000000000000000000000008000000000000000000002000002000000000000000000000120000000000000000000800000000000000000000000010000400000000200000000000000000000000000000000000000000000000000000000000000000000000000000000000040000000000000000000000000000000000000000000042000000000000000000000000000000000000000000000000000020000000000000000000000000000000000000000000000000000000000000000000",
    "root": null,
    "status": true,
    "to": "0xc91699ee25e0eaebb17a4027f015af9822346aa8",
    "transactionHash": "0xb743ea39b1af4227ad3466f4cd6330daae60eeaeecbbbf9de4022e137a9cf81d",
    "transactionIndex": 0
  },
  "block": {
    "author": "0xf0ebfbd01347aaca487358132394a4b87945b553",
    "difficulty": "340282366920938463463374607431768211454",
    "extraData": "0xde830204078f5061726974792d457468657265756d86312e33352e30826d61",
    "gasLimit": 8000000,
    "gasUsed": 159414,
    "hash": "0x8d11edc0c54164c842dbf9b8162d2d4c8423b4a7feaef66d10d84d0680280866",
    "logsBloom": "0x00000000000000000000000000000000000000000010000000000000000000000000000000000000000000000004000000000000000000000000000000000000000000000000000000000008000000000000000000002000002000000000000000000000120000000000000000000800000000000000000000000010000400000000200000000000000000000000000000000000000000000000000000000000000000000000000000000000040000000000000000000000000000000000000000000042000000000000000000000000000000000000000000000000000020000000000000000000000000000000000000000000000000000000000000000000",
    "miner": "0xF0eBFbd01347Aaca487358132394a4B87945B553",
    "number": 9303,
    "parentHash": "0x3019f4ba11ba9fd820985b101236d08658f6937008f57d11c503adb0d23ecd6d",
    "receiptsRoot": "0x19d8e13a445fe7ed9e1037767ae82b2e214dc06620d7e4a8940f695c325b0826",
    "sealFields": [
      "0x845db80511",
      "0xb8411b7589b03d2332d456676104efa2203a01a74df4a1acb17de78c96ca91b7c3923e97402cbd15df4f6216423bd4427593b939f4ab0bbdc6e7c1fa6ffa4efc2a1100"
    ],
    "sha3Uncles": "0x1dcc4de8dec75d7aab85b567b6ccd41ad312451b948a7413f0a142fd40d49347",
    "signature": "1b7589b03d2332d456676104efa2203a01a74df4a1acb17de78c96ca91b7c3923e97402cbd15df4f6216423bd4427593b939f4ab0bbdc6e7c1fa6ffa4efc2a1100",
    "size": 766,
    "stateRoot": "0x40117467baae329835b8c86ae6fc4f9408fc0c72eb91223f5360edbba7a43876",
    "step": "1572341009",
    "timestamp": 1572341009,
    "totalDifficulty": "3165646859465490525599773972937738098824857",
    "transactions": [
      {
        "blockHash": "0x8d11edc0c54164c842dbf9b8162d2d4c8423b4a7feaef66d10d84d0680280866",
        "blockNumber": 9303,
        "chainId": "0x3a99",
        "condition": null,
        "creates": null,
        "from": "0x9fB29AAc15b9A4B7F17c3385939b007540f4d791",
        "gas": 6721975,
        "gasPrice": "20000000000",
        "hash": "0xb743ea39b1af4227ad3466f4cd6330daae60eeaeecbbbf9de4022e137a9cf81d",
        "input": "0x40c10f190000000000000000000000009fb29aac15b9a4b7f17c3385939b007540f4d791d9d9599985b09c517488b4c1c65a1f8ce6bb93881e8168b606dfe99b64d1a81c",
        "nonce": 217,
        "publicKey": "0x914873c8d5935837ade39cbdabd6efb3d3d4064c5918da11e555bba0ab2c58fee95974a3222830cf73d257bdc18cfcd01765482108a48e68bc0b657618acb40e",
        "r": "0x61f4824c0e08625d7037a2b8f60fb77a2acc27c8ed4bcfde321192742a09e8c",
        "raw": "0xf8ad81d98504a817c800836691b794c91699ee25e0eaebb17a4027f015af9822346aa880b84440c10f190000000000000000000000009fb29aac15b9a4b7f17c3385939b007540f4d791d9d9599985b09c517488b4c1c65a1f8ce6bb93881e8168b606dfe99b64d1a81c827556a0061f4824c0e08625d7037a2b8f60fb77a2acc27c8ed4bcfde321192742a09e8ca067dbbe62db4f1171523f8cc22904bd257d3971396484661ab76faedce986fcf9",
        "s": "0x67dbbe62db4f1171523f8cc22904bd257d3971396484661ab76faedce986fcf9",
        "standardV": "0x1",
        "to": "0xC91699Ee25E0EaEBb17A4027f015AF9822346aa8",
        "transactionIndex": 0,
        "v": "0x7556",
        "value": "0"
      }
    ],
    "transactionsRoot": "0x29da0bcf123c8db4ce4fd55fb3221513ace25f9483fdf0c68f872bde0e4b5874",
    "uncles": []
  }
}