module.exports = { blockHash:
   '0x76c292a89014cf88c0d6f86748139dde43fb46cb1fd97ad0fcfaff37a605a806',
  blockNumber: 5860,
  chainId: '0xd',
  condition: null,
  creates: null,
  from: '0x9fB29AAc15b9A4B7F17c3385939b007540f4d791',
  gas: 6721975,
  gasPrice: '20000000000',
  hash:
   '0x0db488007b3c86afb056c5dab4678186b43742fd66ec45576589a564e25139d1',
  input:
   '0x2e1a7d4d0000000000000000000000000000000000000000000000000000000000000001',
  nonce: 852,
  publicKey:
   '0x914873c8d5935837ade39cbdabd6efb3d3d4064c5918da11e555bba0ab2c58fee95974a3222830cf73d257bdc18cfcd01765482108a48e68bc0b657618acb40e',
  r:
   '0x853e14107eac1878cee291974ab56afceb3a648e2242444bde78565a4e3e6197',
  raw:
   '0xf88b8203548504a817c800836691b7943b3e3c29dc5caf4f0793a2f951f1d4b64b229e9780a42e1a7d4d00000000000000000000000000000000000000000000000000000000000000013ea0853e14107eac1878cee291974ab56afceb3a648e2242444bde78565a4e3e6197a04e8757d09575d4f551a07f9752a0af313cc3eaf1a2b8a4946ba2d0a982281522',
  s:
   '0x4e8757d09575d4f551a07f9752a0af313cc3eaf1a2b8a4946ba2d0a982281522',
  standardV: '0x1',
  to: '0x3B3e3c29dc5CAF4F0793a2F951f1D4b64b229E97',
  transactionIndex: 0,
  v: '0x3e',
  value: '0' }