module.exports = { author: '0x9fb29aac15b9a4b7f17c3385939b007540f4d791',
  difficulty: '340282366920938463463374607431768211452',
  extraData:
   '0xde8302010b8f5061726974792d457468657265756d86312e33312e31826d61',
  gasLimit: 224120880,
  gasUsed: 18999,
  hash:
   '0x76c292a89014cf88c0d6f86748139dde43fb46cb1fd97ad0fcfaff37a605a806',
  logsBloom:
   '0x00000000000000000000000000000000000000000000000000000000000000000000000000000000000010000004000000000000000002000000000000000100000000008000000000000008000000000000000000002000002000000000000000000000020000000000000000000800000000000000000000800010001000000000000000000000000000000000008000000000000000000080000000000000000000000000000000000000000000000000000000000000000000000000000000000002000000000000000000000000000000000000000000000000200020000000000000000000000000000000000000000000000000000000000000000000',
  miner: '0x9fB29AAc15b9A4B7F17c3385939b007540f4d791',
  number: 5860,
  parentHash:
   '0x88a149a8271ccb02ae4e176f624cfb893aa57652162fada33000fc4e1469a95d',
  receiptsRoot:
   '0x014839b2d5f47f82c098070fd55c89ee29dff38d90372488696d93015a69a81d',
  sealFields:
   [ '0x845cc3f525',
     '0xb8417d67ad61772fb38dc8dd1073ad2a6c8f0e41c0626549f11a6bf5875a4013c9186239bc68f2ef17970f47cdd9d764c43e59b948bc947a4a50e1251e358a1e1c8b00' ],
  sha3Uncles:
   '0x1dcc4de8dec75d7aab85b567b6ccd41ad312451b948a7413f0a142fd40d49347',
  signature:
   '7d67ad61772fb38dc8dd1073ad2a6c8f0e41c0626549f11a6bf5875a4013c9186239bc68f2ef17970f47cdd9d764c43e59b948bc947a4a50e1251e358a1e1c8b00',
  size: 732,
  stateRoot:
   '0x60d77a99de23960564079366c31b206f33578923be4297bf2678142c3af1fcf0',
  step: '1556346149',
  timestamp: 1556346149,
  totalDifficulty: '1994054670156699395895375199550160162780152',
  transactions:
   [ { blockHash:
        '0x76c292a89014cf88c0d6f86748139dde43fb46cb1fd97ad0fcfaff37a605a806',
       blockNumber: 5860,
       chainId: '0xd',
       condition: null,
       creates: null,
       from: '0x9fB29AAc15b9A4B7F17c3385939b007540f4d791',
       gas: 6721975,
       gasPrice: '20000000000',
       hash:
        '0x0db488007b3c86afb056c5dab4678186b43742fd66ec45576589a564e25139d1',
       input:
        '0x2e1a7d4d0000000000000000000000000000000000000000000000000000000000000001',
       nonce: 852,
       publicKey:
        '0x914873c8d5935837ade39cbdabd6efb3d3d4064c5918da11e555bba0ab2c58fee95974a3222830cf73d257bdc18cfcd01765482108a48e68bc0b657618acb40e',
       r:
        '0x853e14107eac1878cee291974ab56afceb3a648e2242444bde78565a4e3e6197',
       raw:
        '0xf88b8203548504a817c800836691b7943b3e3c29dc5caf4f0793a2f951f1d4b64b229e9780a42e1a7d4d00000000000000000000000000000000000000000000000000000000000000013ea0853e14107eac1878cee291974ab56afceb3a648e2242444bde78565a4e3e6197a04e8757d09575d4f551a07f9752a0af313cc3eaf1a2b8a4946ba2d0a982281522',
       s:
        '0x4e8757d09575d4f551a07f9752a0af313cc3eaf1a2b8a4946ba2d0a982281522',
       standardV: '0x1',
       to: '0x3B3e3c29dc5CAF4F0793a2F951f1D4b64b229E97',
       transactionIndex: 0,
       v: '0x3e',
       value: '0' } ],
  transactionsRoot:
   '0xd33784b1e6f82c44661c73e3e9118cb9cb23feda5c618d7cbf23cba6a9418c17',
  uncles: [] }